:020000040800F2
:1000000010040020D5000008970800089508000893
:1000100000000000000000000000000000000000E0
:100020000000000000000000000000009B08000825
:100030000000000000000000990800089D0800086A
:10004000E7000008E7000008E7000008E7000008F4
:10005000E7000008E7000008E7000008E7000008E4
:10006000E7000008E7000008E7000008E7000008D4
:10007000E7000008E7000008E7000008E7000008C4
:10008000E7000008E7000008E7000008E7000008B4
:10009000E7000008E7000008E7000008E7000008A4
:1000A000E7000008E7000008E7000008E700000894
:1000B000E7000008E7000008E7000008E700000884
:1000C0000348854600F07CF800480047C109000855
:1000D000100400200448804704480047FEE7FEE77C
:1000E000FEE7FEE7FEE7FEE701090008C1000008A1
:1000F00030B50B46014600202022012409E00D46C0
:10010000D5409D4205D31D469540491B2546954047
:1001100040191546521E002DF1DC30BDF0B51FB45C
:100120000646002082B005464024019100901BE065
:10013000019922460F46304600F020F8049A059BAC
:10014000801A994110D310461946224600F027F82C
:10015000361A8F410197224601200021009F00F0AE
:100160001EF838184D4100902046641E0028DFDC40
:10017000019B00982946324607B0F0BD10B5202AF1
:1001800004DB0846203AD040002110BD0B46D34086
:10019000D0402024A21A91400843194610BD10B542
:1001A000202A04DB0146203A9140002010BD9140F6
:1001B00020239C1A0346E3401943904010BD0000E1
:1001C000064C0125064E05E0E36807CC2B430C3CAA
:1001D00098471034B442F7D3FFF776FFE80C0008D5
:1001E000080D0008014880687047000000000020EA
:1001F00002488168027889188160704700000020F9
:1002000010B506480168102211430160002000F07B
:1002100007F800F027F8002010BD00000020024081
:1002200070B504460D4D7D202978C000FFF760FFB2
:1002300001460B480068FFF75BFF00F013FB002846
:1002400009D1042C07D200222146401E00F01EF8DE
:1002500000206C6070BD012070BD00000000002017
:100260000C00002008B50848816901221143816112
:10027000816911400091C26901040A43C261C069E9
:100280000840009008BD00000010024010B500F0CA
:100290005BFB10BDF8B50F4606005FD03D4D2868EA
:1002A000C007C00FB84209D2286840084000384350
:1002B00028602868C007C00FB8424FD13068364C5C
:1002C00081070CD5400704D560680721090208435F
:1002D00060606068F0218843B168084360603078EE
:1002E000C0072CD07068012810D0022811D0032834
:1002F00012D021688907002930DA616889088900ED
:1003000001436160FFF76EFF009011E021688903EF
:10031000F1E721688901EEE7616BC903EBE7FFF7BD
:1003200061FF0099411A1D48814201D90320F8BD9F
:1003300060680C210840716889008842EFD1286804
:10034000C007C00FB8420BD92868400840003843A6
:1003500028602868C007C00FB84201D00120F8BD4E
:100360003078400706D56068072109028843F168A4
:100370000843606000F01EF86168094A0906090F29
:10038000515CC840074908600020FFF749FF002082
:10039000F8BD000000200240001002408813000059
:1003A000D80C00080C0000200148006870470000CD
:1003B0000C00002030B519A30FCB89B06C460FC4D8
:1003C0001AA30FCB0FC41D4A51680C200B460340E3
:1003D0001B48042B05D01B4D082B04D00C2B00D13F
:1003E000284609B030BD8B021B0F6C46E45CD26A14
:1003F00004AB1207120FC9039A5C890F022901D0BE
:10040000032901D0002301E0002328460021FFF743
:1004100085FE214600F080FAE3E7000002030405B0
:10042000060708090A0B0C0D0E0F10100102030439
:1004300005060708090A0B0C0D0E0F1000100240EC
:1004400000127A00006CDC02FEB5040070D0207847
:10045000F94EFA4DC00748D068680007800F0128A0
:100460001FD068680007800F022804D16868C003A5
:10047000800F022815D06168012919D0012080045D
:10048000002901D0052917D02968B14329602968BE
:1004900081432960606800281BD0FFF7A3FE074650
:1004A00013E02868800320D560680028CED01CE0C7
:1004B000286830432860EDE7296801432960F7E7A1
:1004C000FFF790FEC01B642870D828688003F7D51A
:1004D0000BE0FFF787FE074604E0FFF783FEC01B33
:1004E0006428F1D828688003F7D4207880073FD5A6
:1004F00068680007800F14D068680007800F022822
:1005000004D16868C003800F01280AD0E068002881
:1005100028681ED0012108432860FFF763FE0746C4
:100520000CE0286880070CD5E068012800D108E0BD
:1005300080E1FFF757FEC01B0228C5D82868800756
:10054000F7D52868F82188432169C9000843286045
:100550000EE0400840002860FFF744FE074604E034
:10056000FFF740FEC01B0228AED828688007F7D4EA
:100570002078000723D5E0690028686A0FD00121A0
:1005800008436862FFF72EFE074604E0FFF72AFEE5
:10059000C01B022898D8686A8007F7D50FE040088A
:1005A00040006862FFF71EFE074605E0C3E0FFF764
:1005B00019FEC01B022887D8686A8007F7D4207804
:1005C00004274007002861DA00200190E869C00094
:1005D00008D4E969B8060143E961E96901400120ED
:1005E0000091019096480168C90511D401688215EF
:1005F00011430160FFF7F6FD009005E0FFF7F2FD03
:100600000099401A642898D88D480068C005F5D52F
:10061000A06801280AD0002801D0052811D0286A36
:10062000400840002862286AB84302E0286A012195
:1006300008432862A068002812D0FFF7D3FD00907D
:100640000AE0286A38432862F0E7FFF7CBFD0099FB
:10065000411A7C4881426ED8286A8007F5D50DE0A2
:10066000FFF7C0FD009006E0FFF7BCFD0099411ABE
:10067000744881425FD8286A8007F5D40198002821
:1006800004D0E969012000078143E9612078C006B0
:1006900035D5606901280CD0401D686B24D03843E3
:1006A0006863686B400840006863FFF79BFD07467E
:1006B00022E0686B38436863686B01210843686314
:1006C000FFF790FD074604E0FFF78CFDC01B0228F2
:1006D00031D8686B8007F7D5686BF8218843A1692A
:1006E000C900084368630AE0B8436863F4E7FFF7AA
:1006F00079FDC01B02281ED8686B8007F7D42078CC
:10070000800637D568680007800F032814D0686812
:100710000007800F022804D16868C003800F0328F7
:100720000AD0206A0028686B16D030436863FFF750
:1007300059FD06460CE062E0686BC0031AD5206ADA
:10074000012877D116E0FFF74DFD801B022856D80F
:10075000686BC003F7D50DE0B0436863FFF742FD57
:10076000064604E0FFF73EFD801B022847D8686B71
:10077000C003F7D4606A002866D069680907890F4A
:10078000022942D0012636060228286805D0B04347
:100790002860FFF727FD044633E0B0432860FFF7E9
:1007A00021FD074604E0FFF71DFDC01B022826D8E7
:1007B00028688001F7D4E86A216B0009000108432A
:1007C000E862A16AE06A084369687B22D203914328
:1007D00008436860286830432860FFF703FD04463B
:1007E00004E0FFF7FFFC001B022808D828688001FE
:1007F000F7D529E0FFF7F6FC001B022801D90320FA
:10080000FEBD28688001F5D41EE00128F8D0686894
:10081000E96A0322D203A36A02409A420AD1090775
:10082000226B090F914205D10F2189040840E16A2A
:10083000884209D00120FEBD0000010000100240E6
:1008400000700040881300000020F4E704220449EF
:100850000428086902D09043086170471043FBE701
:1008600000E000E0094910B5401E884201D901208E
:1008700010BD074C60610321081F00F065F80020DF
:10088000A06107202061002010BD0000FFFFFF00D5
:1008900000E000E0FEE770477047704710B5FFF7D3
:1008A000A7FC10BD10B592B002200090012003906B
:1008B00000241020099404906846FFF7C5FD002825
:1008C00000D0FEE707200D900E940F9400211094A5
:1008D0000DA8FFF7DFFC002800D0FEE7FFF764FD5E
:1008E0007D21C900FFF704FCFFF7BCFF0420FFF7E0
:1008F000ADFF00221146501EFFF7C8FC12B010BD1C
:10090000704700000349CA691206FCD5014920312D
:100910000881704700480040F8B5040C8BB22646A9
:1009200082B25E430D0C1046370C584336048019D2
:100930000021794116466E43370C360480197941FF
:1009400026466E438919F8BD8307FF22DB0E9A40C5
:100950008907090E9940002808DB830809489B0095
:100960001B18186890430843186070470007000F71
:100970000838830804489B001B18D8699043084333
:10098000D861704700E400E000ED00E002E008C834
:10099000121F08C1002AFAD170477047002001E0F9
:1009A00001C1121F002AFBD1704710B50446002375
:1009B00002E0FFF7A7FF5B1CE05C0028F9D110BD47
:1009C000FFF71EFCFFF76EFF8C4841690122D2043D
:1009D00011434161C16952101143C16188480368E4
:1009E00051120B430360046A43011C430462046810
:1009F0008D002C430460046A45022C4304620468A1
:100A0000CD002C43046045684024A54345608568BB
:100A100003242403A5438560C568A543C560046815
:100A20004D012C43046045688024A54345608568DA
:100A30000324A403A5438560C568A543C560046875
:100A40001C43046044684B109C4344608468032347
:100A50001B049C438460C4689C43C46003681343C4
:100A6000036042688A4342608268032189048A43A2
:100A70008260C2688A43C260FFF796FCE1214902A6
:100A8000FFF736FB5F4CE0602068042108432060DC
:100A90002068082108432060206801210843206065
:100AA00000210E460F460D46E069800606D456A08A
:100AB000002905D1FFF779FF012101E0002E0FD0B9
:100AC000012E16D0022E19D0032EEDD1622F37D071
:100AD0006F2F51D0722F17D0792F6CD04CA088E097
:100AE000484820308088C7B2E06920221040E06189
:100AF0000126E0698006D7D50226D5E741480326BE
:100B000020308088C5B2CFE7302D04D0312D09D0F8
:100B1000322D0ED06FE03A48426940218A4342614B
:100B20003DA066E0364841694022114341613EA044
:100B30005FE0334841694022514041613EA058E0A6
:100B4000302D04D0312D09D0322D0ED053E02C4859
:100B5000426980218A4342613BA04AE028484269B9
:100B600080210A4342613CA043E02548426980213C
:100B70004A4042613CA03CE0302D04D0312D0AD0E7
:100B8000322D10D037E01E484169FF2201329143D7
:100B9000416139A02DE01A484169FF220132114319
:100BA000416139A025E016484169FF2201325140D8
:100BB000416139A01DE0302D04D0312D0AD0322DF5
:100BC00010D018E00E484269012149028A4342616F
:100BD00035A00EE00A4841690122520211434161E9
:100BE00035A006E0064841690122520251404161A8
:100BF00035A0FFF7DAFE0026314655E70010024027
:100C00000008004800480040434D443F0A000000EF
:100C10004552524F520A00000920494E5055543A4D
:100C20000972300A000000000920494E5055543A1C
:100C30000972310A000000000920494E5055543A0B
:100C40000972320A000000000920494E5055543AFA
:100C50000962300A000000000920494E5055543AFC
:100C60000962310A000000000920494E5055543AEB
:100C70000962320A000000000920494E5055543ADA
:100C8000096F300A000000000920494E5055543ABF
:100C9000096F310A000000000920494E5055543AAE
:100CA000096F320A000000000920494E5055543A9D
:100CB0000979300A000000000920494E5055543A85
:100CC0000979310A000000000920494E5055543A74
:100CD0000979320A00000000000000000000000056
:100CE0000102030406070809080D0008000000209F
:100CF000100000008C090008180D000810000020EA
:100D0000000400009C09000801000000040000002D
:080D10000000000000127A004F
:04000005080000C12E
:00000001FF
